{
  "contractName": "Voting",
  "abi": [
    {
      "constant": true,
      "inputs": [
        {
          "internalType": "uint256",
          "name": "",
          "type": "uint256"
        }
      ],
      "name": "candidates",
      "outputs": [
        {
          "internalType": "uint256",
          "name": "id",
          "type": "uint256"
        },
        {
          "internalType": "string",
          "name": "name",
          "type": "string"
        },
        {
          "internalType": "string",
          "name": "party",
          "type": "string"
        },
        {
          "internalType": "uint256",
          "name": "voteCount",
          "type": "uint256"
        }
      ],
      "payable": false,
      "stateMutability": "view",
      "type": "function"
    },
    {
      "constant": true,
      "inputs": [],
      "name": "countCandidates",
      "outputs": [
        {
          "internalType": "uint256",
          "name": "",
          "type": "uint256"
        }
      ],
      "payable": false,
      "stateMutability": "view",
      "type": "function"
    },
    {
      "constant": true,
      "inputs": [
        {
          "internalType": "address",
          "name": "",
          "type": "address"
        }
      ],
      "name": "voters",
      "outputs": [
        {
          "internalType": "bool",
          "name": "",
          "type": "bool"
        }
      ],
      "payable": false,
      "stateMutability": "view",
      "type": "function"
    },
    {
      "constant": true,
      "inputs": [],
      "name": "votingEnd",
      "outputs": [
        {
          "internalType": "uint256",
          "name": "",
          "type": "uint256"
        }
      ],
      "payable": false,
      "stateMutability": "view",
      "type": "function"
    },
    {
      "constant": true,
      "inputs": [],
      "name": "votingStart",
      "outputs": [
        {
          "internalType": "uint256",
          "name": "",
          "type": "uint256"
        }
      ],
      "payable": false,
      "stateMutability": "view",
      "type": "function"
    },
    {
      "constant": false,
      "inputs": [
        {
          "internalType": "string",
          "name": "name",
          "type": "string"
        },
        {
          "internalType": "string",
          "name": "party",
          "type": "string"
        }
      ],
      "name": "addCandidate",
      "outputs": [
        {
          "internalType": "uint256",
          "name": "",
          "type": "uint256"
        }
      ],
      "payable": false,
      "stateMutability": "nonpayable",
      "type": "function"
    },
    {
      "constant": false,
      "inputs": [
        {
          "internalType": "uint256",
          "name": "candidateID",
          "type": "uint256"
        }
      ],
      "name": "vote",
      "outputs": [],
      "payable": false,
      "stateMutability": "nonpayable",
      "type": "function"
    },
    {
      "constant": true,
      "inputs": [],
      "name": "checkVote",
      "outputs": [
        {
          "internalType": "bool",
          "name": "",
          "type": "bool"
        }
      ],
      "payable": false,
      "stateMutability": "view",
      "type": "function"
    },
    {
      "constant": true,
      "inputs": [],
      "name": "getCountCandidates",
      "outputs": [
        {
          "internalType": "uint256",
          "name": "",
          "type": "uint256"
        }
      ],
      "payable": false,
      "stateMutability": "view",
      "type": "function"
    },
    {
      "constant": true,
      "inputs": [
        {
          "internalType": "uint256",
          "name": "candidateID",
          "type": "uint256"
        }
      ],
      "name": "getCandidate",
      "outputs": [
        {
          "internalType": "uint256",
          "name": "",
          "type": "uint256"
        },
        {
          "internalType": "string",
          "name": "",
          "type": "string"
        },
        {
          "internalType": "string",
          "name": "",
          "type": "string"
        },
        {
          "internalType": "uint256",
          "name": "",
          "type": "uint256"
        }
      ],
      "payable": false,
      "stateMutability": "view",
      "type": "function"
    },
    {
      "constant": false,
      "inputs": [
        {
          "internalType": "uint256",
          "name": "_startDate",
          "type": "uint256"
        },
        {
          "internalType": "uint256",
          "name": "_endDate",
          "type": "uint256"
        }
      ],
      "name": "setDates",
      "outputs": [],
      "payable": false,
      "stateMutability": "nonpayable",
      "type": "function"
    },
    {
      "constant": true,
      "inputs": [],
      "name": "getDates",
      "outputs": [
        {
          "internalType": "uint256",
          "name": "",
          "type": "uint256"
        },
        {
          "internalType": "uint256",
          "name": "",
          "type": "uint256"
        }
      ],
      "payable": false,
      "stateMutability": "view",
      "type": "function"
    }
  ],
  "bytecode": "0x608060405234801561001057600080fd5b50610c4b806100206000396000f3fe608060405234801561001057600080fd5b50600436106100b45760003560e01c806335b8e8201161007157806335b8e820146103cf57806385a38635146104f0578063a3ec138d1461050e578063b0417e981461056a578063b86eda911461058c578063dedf141e146105aa576100b4565b80630121b93f146100b95780630a84a217146100e7578063101158af14610105578063164418131461012357806326541b56146101485780633477ee2e146102ae575b600080fd5b6100e5600480360360208110156100cf57600080fd5b81019080803590602001909291905050506105e2565b005b6100ef6106ef565b6040518082815260200191505060405180910390f35b61010d6106f9565b6040518082815260200191505060405180910390f35b61012b6106ff565b604051808381526020018281526020019250505060405180910390f35b6102986004803603604081101561015e57600080fd5b810190808035906020019064010000000081111561017b57600080fd5b82018360208201111561018d57600080fd5b803590602001918460018302840111640100000000831117156101af57600080fd5b91908080601f016020809104026020016040519081016040528093929190818152602001838380828437600081840152601f19601f8201169050808301925050505050505091929192908035906020019064010000000081111561021257600080fd5b82018360208201111561022457600080fd5b8035906020019184600183028401116401000000008311171561024657600080fd5b91908080601f016020809104026020016040519081016040528093929190818152602001838380828437600081840152601f19601f820116905080830192505050505050509192919290505050610710565b6040518082815260200191505060405180910390f35b6102da600480360360208110156102c457600080fd5b81019080803590602001909291905050506107b8565b604051808581526020018060200180602001848152602001838103835286818151815260200191508051906020019080838360005b8381101561032a57808201518184015260208101905061030f565b50505050905090810190601f1680156103575780820380516001836020036101000a031916815260200191505b50838103825285818151815260200191508051906020019080838360005b83811015610390578082015181840152602081019050610375565b50505050905090810190601f1680156103bd5780820380516001836020036101000a031916815260200191505b50965050505050505060405180910390f35b6103fb600480360360208110156103e557600080fd5b8101908080359060200190929190505050610918565b604051808581526020018060200180602001848152602001838103835286818151815260200191508051906020019080838360005b8381101561044b578082015181840152602081019050610430565b50505050905090810190601f1680156104785780820380516001836020036101000a031916815260200191505b50838103825285818151815260200191508051906020019080838360005b838110156104b1578082015181840152602081019050610496565b50505050905090810190601f1680156104de5780820380516001836020036101000a031916815260200191505b50965050505050505060405180910390f35b6104f8610aa7565b6040518082815260200191505060405180910390f35b6105506004803603602081101561052457600080fd5b81019080803573ffffffffffffffffffffffffffffffffffffffff169060200190929190505050610aad565b604051808215151515815260200191505060405180910390f35b610572610acd565b604051808215151515815260200191505060405180910390f35b610594610b21565b6040518082815260200191505060405180910390f35b6105e0600480360360408110156105c057600080fd5b810190808035906020019092919080359060200190929190505050610b27565b005b42600454111580156105f5575042600354115b6105fe57600080fd5b60008111801561061057506002548111155b61061957600080fd5b600160003373ffffffffffffffffffffffffffffffffffffffff1673ffffffffffffffffffffffffffffffffffffffff16815260200190815260200160002060009054906101000a900460ff161561067057600080fd5b60018060003373ffffffffffffffffffffffffffffffffffffffff1673ffffffffffffffffffffffffffffffffffffffff16815260200190815260200160002060006101000a81548160ff0219169083151502179055506000808281526020019081526020016000206003016000815480929190600101919050555050565b6000600254905090565b60045481565b600080600454600354915091509091565b60006002600081548092919060010191905055506040518060800160405280600254815260200184815260200183815260200160008152506000806002548152602001908152602001600020600082015181600001556020820151816001019080519060200190610782929190610b71565b50604082015181600201908051906020019061079f929190610b71565b5060608201518160030155905050600254905092915050565b6000602052806000526040600020600091509050806000015490806001018054600181600116156101000203166002900480601f01602080910402602001604051908101604052809291908181526020018280546001816001161561010002031660029004801561086a5780601f1061083f5761010080835404028352916020019161086a565b820191906000526020600020905b81548152906001019060200180831161084d57829003601f168201915b505050505090806002018054600181600116156101000203166002900480601f0160208091040260200160405190810160405280929190818152602001828054600181600116156101000203166002900480156109085780601f106108dd57610100808354040283529160200191610908565b820191906000526020600020905b8154815290600101906020018083116108eb57829003601f168201915b5050505050908060030154905084565b600060608060008460008087815260200190815260200160002060010160008088815260200190815260200160002060020160008089815260200190815260200160002060030154828054600181600116156101000203166002900480601f0160208091040260200160405190810160405280929190818152602001828054600181600116156101000203166002900480156109f55780601f106109ca576101008083540402835291602001916109f5565b820191906000526020600020905b8154815290600101906020018083116109d857829003601f168201915b50505050509250818054600181600116156101000203166002900480601f016020809104026020016040519081016040528092919081815260200182805460018160011615610100020316600290048015610a915780601f10610a6657610100808354040283529160200191610a91565b820191906000526020600020905b815481529060010190602001808311610a7457829003601f168201915b5050505050915093509350935093509193509193565b60035481565b60016020528060005260406000206000915054906101000a900460ff1681565b6000600160003373ffffffffffffffffffffffffffffffffffffffff1673ffffffffffffffffffffffffffffffffffffffff16815260200190815260200160002060009054906101000a900460ff16905090565b60025481565b6000600354148015610b3b57506000600454145b8015610b4b575042620f42408301115b8015610b5657508181115b610b5f57600080fd5b80600381905550816004819055505050565b828054600181600116156101000203166002900490600052602060002090601f016020900481019282601f10610bb257805160ff1916838001178555610be0565b82800160010185558215610be0579182015b82811115610bdf578251825591602001919060010190610bc4565b5b509050610bed9190610bf1565b5090565b610c1391905b80821115610c0f576000816000905550600101610bf7565b5090565b9056fea265627a7a7231582054d9fb641f296d858431946317f050862c8f91a8a25ce9dfd5b5c3bf4f73619f64736f6c63430005100032",
  "source": "\r\npragma solidity ^0.5.15;\r\n\r\ncontract Voting {\r\n    struct Candidate {\r\n        uint id;\r\n        string name;\r\n        string party; \r\n        uint voteCount;\r\n    }\r\n\r\n    mapping (uint => Candidate) public candidates;\r\n    mapping (address => bool) public voters;\r\n\r\n    \r\n    uint public countCandidates;\r\n    uint256 public votingEnd;\r\n    uint256 public votingStart;\r\n\r\n\r\n    function addCandidate(string memory name, string memory party) public  returns(uint) {\r\n               countCandidates ++;\r\n               candidates[countCandidates] = Candidate(countCandidates, name, party, 0);\r\n               return countCandidates;\r\n    }\r\n   \r\n    function vote(uint candidateID) public {\r\n\r\n       require((votingStart <= now) && (votingEnd > now));\r\n   \r\n       require(candidateID > 0 && candidateID <= countCandidates);\r\n\r\n       //daha önce oy kullanmamıs olmalı\r\n       require(!voters[msg.sender]);\r\n              \r\n       voters[msg.sender] = true;\r\n       \r\n       candidates[candidateID].voteCount ++;      \r\n    }\r\n    \r\n    function checkVote() public view returns(bool){\r\n        return voters[msg.sender];\r\n    }\r\n       \r\n    function getCountCandidates() public view returns(uint) {\r\n        return countCandidates;\r\n    }\r\n\r\n    function getCandidate(uint candidateID) public view returns (uint,string memory, string memory,uint) {\r\n        return (candidateID,candidates[candidateID].name,candidates[candidateID].party,candidates[candidateID].voteCount);\r\n    }\r\n\r\n    function setDates(uint256 _startDate, uint256 _endDate) public{\r\n        require((votingEnd == 0) && (votingStart == 0) && (_startDate + 1000000 > now) && (_endDate > _startDate));\r\n        votingEnd = _endDate;\r\n        votingStart = _startDate;\r\n    }\r\n\r\n    function getDates() public view returns (uint256,uint256) {\r\n      return (votingStart,votingEnd);\r\n    }\r\n    \r\n}",
  "sourcePath": "C:\\Users\\Hp\\Desktop\\decentralized-voting\\contracts\\Voting.sol",
  "compiler": {
    "name": "solc",
    "version": "0.5.16+commit.9c3226ce.Emscripten.clang"
  },
  "schemaVersion": "3.4.13",
  "updatedAt": "2023-04-13T14:42:48.988Z",
  "networkType": "ethereum",
  "devdoc": {
    "methods": {}
  },
  "userdoc": {
    "methods": {}
  }
}